{
  "contractName": "ERC20",
  "abi": [
    {
      "inputs": [],
      "payable": false,
      "stateMutability": "nonpayable",
      "type": "constructor"
    },
    {
      "anonymous": false,
      "inputs": [
        {
          "indexed": true,
          "internalType": "address",
          "name": "owner",
          "type": "address"
        },
        {
          "indexed": true,
          "internalType": "address",
          "name": "spender",
          "type": "address"
        },
        {
          "indexed": false,
          "internalType": "uint256",
          "name": "value",
          "type": "uint256"
        }
      ],
      "name": "Approval",
      "type": "event"
    },
    {
      "anonymous": false,
      "inputs": [
        {
          "indexed": true,
          "internalType": "address",
          "name": "from",
          "type": "address"
        },
        {
          "indexed": true,
          "internalType": "address",
          "name": "to",
          "type": "address"
        },
        {
          "indexed": false,
          "internalType": "uint256",
          "name": "value",
          "type": "uint256"
        }
      ],
      "name": "Transfer",
      "type": "event"
    },
    {
      "constant": true,
      "inputs": [],
      "name": "totalSupply",
      "outputs": [
        {
          "internalType": "uint256",
          "name": "",
          "type": "uint256"
        }
      ],
      "payable": false,
      "stateMutability": "view",
      "type": "function"
    },
    {
      "constant": false,
      "inputs": [
        {
          "internalType": "uint256",
          "name": "amount",
          "type": "uint256"
        }
      ],
      "name": "mint",
      "outputs": [],
      "payable": false,
      "stateMutability": "nonpayable",
      "type": "function"
    },
    {
      "constant": true,
      "inputs": [
        {
          "internalType": "address",
          "name": "account",
          "type": "address"
        }
      ],
      "name": "balanceOf",
      "outputs": [
        {
          "internalType": "uint256",
          "name": "",
          "type": "uint256"
        }
      ],
      "payable": false,
      "stateMutability": "view",
      "type": "function"
    },
    {
      "constant": false,
      "inputs": [
        {
          "internalType": "address",
          "name": "recipient",
          "type": "address"
        },
        {
          "internalType": "uint256",
          "name": "amount",
          "type": "uint256"
        }
      ],
      "name": "transfer",
      "outputs": [
        {
          "internalType": "bool",
          "name": "",
          "type": "bool"
        }
      ],
      "payable": false,
      "stateMutability": "nonpayable",
      "type": "function"
    },
    {
      "constant": false,
      "inputs": [
        {
          "internalType": "address",
          "name": "sender",
          "type": "address"
        },
        {
          "internalType": "address",
          "name": "recipient",
          "type": "address"
        },
        {
          "internalType": "uint256",
          "name": "amount",
          "type": "uint256"
        }
      ],
      "name": "transferFrom",
      "outputs": [
        {
          "internalType": "bool",
          "name": "",
          "type": "bool"
        }
      ],
      "payable": false,
      "stateMutability": "nonpayable",
      "type": "function"
    },
    {
      "constant": true,
      "inputs": [
        {
          "internalType": "address",
          "name": "_owner",
          "type": "address"
        },
        {
          "internalType": "address",
          "name": "spender",
          "type": "address"
        }
      ],
      "name": "allowance",
      "outputs": [
        {
          "internalType": "uint256",
          "name": "",
          "type": "uint256"
        }
      ],
      "payable": false,
      "stateMutability": "view",
      "type": "function"
    },
    {
      "constant": false,
      "inputs": [
        {
          "internalType": "address",
          "name": "spender",
          "type": "address"
        },
        {
          "internalType": "uint256",
          "name": "amount",
          "type": "uint256"
        }
      ],
      "name": "approve",
      "outputs": [
        {
          "internalType": "bool",
          "name": "",
          "type": "bool"
        }
      ],
      "payable": false,
      "stateMutability": "nonpayable",
      "type": "function"
    }
  ],
  "bytecode": "0x608060405234801561001057600080fd5b5033600460006101000a81548173ffffffffffffffffffffffffffffffffffffffff021916908373ffffffffffffffffffffffffffffffffffffffff1602179055506040518060400160405280600981526020017f44616e5f546f6b656e00000000000000000000000000000000000000000000008152506005908051906020019061009d9291906100fa565b5069021e19e0c9bab2400000600081905550600054600160003373ffffffffffffffffffffffffffffffffffffffff1673ffffffffffffffffffffffffffffffffffffffff1681526020019081526020016000208190555061019f565b828054600181600116156101000203166002900490600052602060002090601f016020900481019282601f1061013b57805160ff1916838001178555610169565b82800160010185558215610169579182015b8281111561016857825182559160200191906001019061014d565b5b509050610176919061017a565b5090565b61019c91905b80821115610198576000816000905550600101610180565b5090565b90565b610a50806101ae6000396000f3fe608060405234801561001057600080fd5b506004361061007d5760003560e01c806370a082311161005b57806370a082311461018c578063a0712d68146101e4578063a9059cbb14610212578063dd62ed3e146102785761007d565b8063095ea7b31461008257806318160ddd146100e857806323b872dd14610106575b600080fd5b6100ce6004803603604081101561009857600080fd5b81019080803573ffffffffffffffffffffffffffffffffffffffff169060200190929190803590602001909291905050506102f0565b604051808215151515815260200191505060405180910390f35b6100f0610400565b6040518082815260200191505060405180910390f35b6101726004803603606081101561011c57600080fd5b81019080803573ffffffffffffffffffffffffffffffffffffffff169060200190929190803573ffffffffffffffffffffffffffffffffffffffff16906020019092919080359060200190929190505050610409565b604051808215151515815260200191505060405180910390f35b6101ce600480360360208110156101a257600080fd5b81019080803573ffffffffffffffffffffffffffffffffffffffff169060200190929190505050610619565b6040518082815260200191505060405180910390f35b610210600480360360208110156101fa57600080fd5b8101908080359060200190929190505050610662565b005b61025e6004803603604081101561022857600080fd5b81019080803573ffffffffffffffffffffffffffffffffffffffff16906020019092919080359060200190929190505050610737565b604051808215151515815260200191505060405180910390f35b6102da6004803603604081101561028e57600080fd5b81019080803573ffffffffffffffffffffffffffffffffffffffff169060200190929190803573ffffffffffffffffffffffffffffffffffffffff1690602001909291905050506108f8565b6040518082815260200191505060405180910390f35b600081600360003373ffffffffffffffffffffffffffffffffffffffff1673ffffffffffffffffffffffffffffffffffffffff16815260200190815260200160002060008573ffffffffffffffffffffffffffffffffffffffff1673ffffffffffffffffffffffffffffffffffffffff168152602001908152602001600020819055508273ffffffffffffffffffffffffffffffffffffffff16600460009054906101000a900473ffffffffffffffffffffffffffffffffffffffff1673ffffffffffffffffffffffffffffffffffffffff167f8c5be1e5ebec7d5bd14f71427d1e84f3dd0314c0f7b2291e5b200ac8c7c3b925846040518082815260200191505060405180910390a392915050565b60008054905090565b6000600360008573ffffffffffffffffffffffffffffffffffffffff1673ffffffffffffffffffffffffffffffffffffffff16815260200190815260200160002060003373ffffffffffffffffffffffffffffffffffffffff1673ffffffffffffffffffffffffffffffffffffffff168152602001908152602001600020548211156104e0576040517f08c379a000000000000000000000000000000000000000000000000000000000815260040180806020018281038252602f8152602001806109bc602f913960400191505060405180910390fd5b600160008573ffffffffffffffffffffffffffffffffffffffff1673ffffffffffffffffffffffffffffffffffffffff16815260200190815260200160002054821115610578576040517f08c379a000000000000000000000000000000000000000000000000000000000815260040180806020018281038252603c815260200180610980603c913960400191505060405180910390fd5b81600160008573ffffffffffffffffffffffffffffffffffffffff1673ffffffffffffffffffffffffffffffffffffffff1681526020019081526020016000206000828254019250508190555081600160008673ffffffffffffffffffffffffffffffffffffffff1673ffffffffffffffffffffffffffffffffffffffff168152602001908152602001600020600082825403925050819055509392505050565b6000600160008373ffffffffffffffffffffffffffffffffffffffff1673ffffffffffffffffffffffffffffffffffffffff168152602001908152602001600020549050919050565b600460009054906101000a900473ffffffffffffffffffffffffffffffffffffffff1673ffffffffffffffffffffffffffffffffffffffff163373ffffffffffffffffffffffffffffffffffffffff1614610725576040517f08c379a000000000000000000000000000000000000000000000000000000000815260040180806020018281038252601a8152602001807f4f6e6c79204f776e65722063616e206d696e7420746f6b656e7300000000000081525060200191505060405180910390fd5b80600080828254019250508190555050565b6000600160003373ffffffffffffffffffffffffffffffffffffffff1673ffffffffffffffffffffffffffffffffffffffff168152602001908152602001600020548211156107d1576040517f08c379a00000000000000000000000000000000000000000000000000000000081526004018080602001828103825260318152602001806109eb6031913960400191505060405180910390fd5b81600160008573ffffffffffffffffffffffffffffffffffffffff1673ffffffffffffffffffffffffffffffffffffffff1681526020019081526020016000206000828254019250508190555081600160003373ffffffffffffffffffffffffffffffffffffffff1673ffffffffffffffffffffffffffffffffffffffff168152602001908152602001600020600082825403925050819055508273ffffffffffffffffffffffffffffffffffffffff16600460009054906101000a900473ffffffffffffffffffffffffffffffffffffffff1673ffffffffffffffffffffffffffffffffffffffff167fddf252ad1be2c89b69c2b068fc378daa952ba7f163c4a11628f55a4df523b3ef846040518082815260200191505060405180910390a392915050565b6000600360008473ffffffffffffffffffffffffffffffffffffffff1673ffffffffffffffffffffffffffffffffffffffff16815260200190815260200160002060008373ffffffffffffffffffffffffffffffffffffffff1673ffffffffffffffffffffffffffffffffffffffff1681526020019081526020016000205490509291505056fe496e7075747465642053656e64657220646f6573206e6f742068617665207468652072657175657374656420616d6f756e74206f6620746f6b656e73416d6f756e7420696e7075747465642069732067726561746572207468616e20617070726f76656420616d6f756e74416d6f756e7420696e7075747465642069732067726561746572207468616e20616d6f756e742073656e64657220686173a265627a7a72315820ac02129722f88971b665c35ea762354c3957e1389ff72a8193952dac51f1435e64736f6c634300050c0032",
  "source": "pragma solidity ^0.5.12;\r\n\r\nimport \"./IERC20.sol\";\r\n\r\ncontract ERC20 is IERC20 {\r\n    uint256 total_supply;\r\n\r\n    mapping(address => uint256) private _balance;\r\n\r\n    mapping(address => uint256) approved_amount;\r\n\r\n    mapping(address => mapping(address => uint256)) private _allowances;\r\n\r\n    address payable owner;\r\n    string private name;\r\n\r\n    constructor() public {\r\n        owner = msg.sender;\r\n        name = \"Dan_Token\";\r\n        total_supply = 10000 * (10**18);\r\n        _balance[msg.sender] = total_supply;\r\n    }\r\n\r\n    function totalSupply() external view returns (uint256) {\r\n        return total_supply;\r\n    }\r\n\r\n    function mint(uint256 amount) public {\r\n        require(msg.sender == owner, \"Only Owner can mint tokens\");\r\n        total_supply += amount;\r\n    }\r\n\r\n    function balanceOf(address account) external view returns (uint256) {\r\n        return _balance[account];\r\n    }\r\n\r\n    function transfer(address recipient, uint256 amount)\r\n        external\r\n        returns (bool)\r\n    {\r\n        require(\r\n            amount <= _balance[msg.sender],\r\n            \"Amount inputted is greater than amount sender has\"\r\n        );\r\n        _balance[recipient] += amount;\r\n        _balance[msg.sender] -= amount;\r\n\r\n        emit Transfer(owner, recipient, amount);\r\n    }\r\n\r\n    function transferFrom(\r\n        address sender,\r\n        address recipient,\r\n        uint256 amount\r\n    ) external returns (bool) {\r\n        require(\r\n            amount <= _allowances[sender][msg.sender],\r\n            \"Amount inputted is greater than approved amount\"\r\n        );\r\n        require(\r\n            amount <= _balance[sender],\r\n            \"Inputted Sender does not have the requested amount of tokens\"\r\n        );\r\n        _balance[recipient] += amount;\r\n        _balance[sender] -= amount;\r\n    }\r\n\r\n    function allowance(address _owner, address spender)\r\n        external\r\n        view\r\n        returns (uint256)\r\n    {\r\n        return _allowances[_owner][spender];\r\n    }\r\n\r\n    function approve(address spender, uint256 amount) external returns (bool) {\r\n        _allowances[msg.sender][spender] = amount;\r\n        emit Approval(owner, spender, amount);\r\n    }\r\n\r\n    event Transfer(address indexed from, address indexed to, uint256 value);\r\n\r\n    event Approval(\r\n        address indexed owner,\r\n        address indexed spender,\r\n        uint256 value\r\n    );\r\n}\r\n",
  "sourcePath": "C:/Users/dania/Desktop/XORD Internship/Day1/Truffle Task/contracts/ERC20.sol",
  "compiler": {
    "name": "solc",
    "version": "0.5.12+commit.7709ece9.Emscripten.clang"
  },
  "schemaVersion": "3.0.19",
  "updatedAt": "2020-08-17T08:23:59.131Z",
  "networkType": "ethereum",
  "devdoc": {
    "methods": {}
  },
  "userdoc": {
    "methods": {}
  }
}